:100000000C945F090C947E180C947C090C947C0968
:100010000C947C090C947C090C947C090C947C094C
:100020000C947C090C94BB170C947C090C947C09EF
:100030000C947C090C947C090C947C090C947C092C
:100040000C947C090C947C090C947C090C947C091C
:100050000C947C090C947C090C947C090C947C090C
:100060000C947C090C947C090C947C090C947C09FC
:100070000C947C090C947C090C947C090C947C09EC
:100080000C947C090C947C090C947C090540B50403
:10009000F441A0000141E2463241A0000040E246A6
:1000A000303F8000000541778C4F40C32CE2411760
:1000B000BF24C1A48DD9C0E1D8A1C05B6782000074
:1000C000C1C081C1400101C3C003800241C201C659
:1000D000C006800741C70005C1C581C4400401CCEA
:1000E000C00C800D41CD000FC1CF81CE400E000A63
:1000F000C1CA81CB400B01C9C009800841C801D8E1
:10010000C018801941D9001BC1DB81DA401A001EDA
:10011000C1DE81DF401F01DDC01D801C41DC0014F9
:10012000C1D481D5401501D7C017801641D601D260
:10013000C012801341D30011C1D181D0401001F011
:10014000C030803141F10033C1F381F240320036DA
:10015000C1F681F7403701F5C035803441F4003CE9
:10016000C1FC81FD403D01FFC03F803E41FE01FAE0
:10017000C03A803B41FB0039C1F981F84038002882
:10018000C1E881E9402901EBC02B802A41EA01EE58
:10019000C02E802F41EF002DC1ED81EC402C01E4F9
:1001A000C024802541E50027C1E781E640260022E2
:1001B000C1E281E3402301E1C021802041E001A0B0
:1001C000C060806141A10063C1A381A2406200665A
:1001D000C1A681A7406701A5C065806441A4006CE9
:1001E000C1AC81AD406D01AFC06F806E41AE01AA60
:1001F000C06A806B41AB0069C1A981A840680078E2
:10020000C1B881B9407901BBC07B807A41BA01BED7
:10021000C07E807F41BF007DC1BD81BC407C01B4F8
:10022000C074807541B50077C1B781B64076007261
:10023000C1B281B3407301B1C071807041B0005050
:10024000C190819140510193C053805241920196D7
:10025000C056805741970055C19581944054019CE8
:10026000C05C805D419D005FC19F819E405E005AE1
:10027000C19A819B405B0199C0598058419801887F
:10028000C04880494189004BC18B818A404A004E59
:10029000C18E818F404F018DC04D804C418C0044F8
:1002A000C184818540450187C047804641860182DF
:1002B000C042804341830041C18181804040A8A168
:1002C000892984818505D4D2C616D0D3C31354504E
:1002D00044141C110D1DACA08C2C242105255C514F
:1002E0004D1D40434303181008181C120E1E505198
:1002F0004111FCF0CC3CC8C2CA0A606343232820E9
:10030000082844404404202000209C918D1DE0E0FA
:10031000C020E0E2C222C8C0C80814130717A4A175
:1003200085258C838F0F0003030378734B3BB8B391
:100330008B3B10130313D0D2C212ECE2CE2E70709E
:1003400040308C808C0C3C330F3FA8A08828303282
:100350000232DCD1CD1DF4F2C63674704434ECE0C8
:10036000CC2C9491851508030B0B545347175C5004
:100370004C1C58534B1BBCB18D3D00010101242086
:1003800004241C100C1C70734333989088181010B0
:100390000010CCC0CC0CF0F2C232D8D1C9192C203C
:1003A0000C2CE4E3C7277072423280838303989356
:1003B0008B1BD0D1C11184828606C8C1C909606077
:1003C000402050504010A0A38323E8E3CB2B0C0126
:1003D0000D0DB4B286369C928E1E4C434F0FB4B3B3
:1003E000873758524A1AC4C2C60678704838A4A241
:1003F000862610120212ACA38F2FD4D1C5156061CE
:100400004121C0C3C303B4B08434404141015052C0
:1004100042127C714D3D8C818D0D080008081C1323
:100420000F1F989189190000000018110919040084
:10043000040450534313F4F3C737E0E1C121FCF146
:10044000CD3D747246362C230F2F24230727B0B0DE
:10045000803088838B0B0C020E0EA8A38B2BA0A2DE
:1004600082226C624E2E909383134C414D0D686135
:1004700049297C704C3C0801090908020A0ABCB3EE
:100480008F3FECE3CF2FF0F3C333C4C1C5058483A2
:10049000870714100414FCF2CE3E64604424DCD2BE
:1004A000CE1E2C220E2E48434B0B18120A1A0402A1
:1004B00006062021012168634B2B64624626000258
:1004C0000202F4F1C5359092821288828A0A0C00E9
:1004D0000C0CB0B383337C724E3ED0D0C010787217
:1004E0004A3A4443470794928616E4E1C5252422FC
:1004F000062680808000ACA18D2DDCD3CF1FA0A16B
:1005000081213030003034330737ACA28E2E3432A4
:100510000636141105152022022238300838F4F06E
:10052000C434A4A38727444145054C404C0C80812A
:100530008101E8E1C92984808404949387173431C8
:100540000535C8C3CB0BCCC2CE0E3C300C3C707111
:10055000413110110111C4C3C70788818909747121
:100560004535F8F3CB3BD8D2CA1AF8F0C838949086
:1005700084145851491980828202C4C0C404FCF317
:10058000CF3F484149093831093964634727C0C022
:10059000C000CCC3CF0FD4D3C717B8B088380C0372
:1005A0000F0F8C828E0E4042420220230323909133
:1005B00081116C604C2CD8D3CB1BA4A08424343084
:1005C0000434F0F1C13148404808C0C2C2026C6333
:1005D0004F2F3C310D3D2C210D2D40404000BCB231
:1005E0008E3E3C320E3EBCB08C3CC0C1C101A8A2C4
:1005F0008A2AB8B28A3A4C424E0E545145153833C5
:100600000B3BDCD0CC1C686048287C734F3F9C902F
:100610008C1CD8D0C81848424A0A545246167473E3
:100620004737A0A08020ECE1CD2D44424606B4B16E
:10063000853528230B2B64614525F8F2CA3AE0E39F
:10064000C323B8B18939B0B181319C938F1F5C52FB
:100650004E1EF8F1C939E4E2C626B0B2823230311A
:100660000131E8E2CA2A6C614D2D5C534F1FE4E072
:10067000C424F0F0C030CCC1CD0D8880880814129D
:10068000061638320A3A58504818D4D0C41460625A
:100690004222282109290403070730330333E8E005
:1006A000C82818130B1B040105057871493990906F
:1006B000801068624A2A28220A2A98928A1A3008E8
:1006C0003838E0C828E8210D2D2CA28626A4C3CFF7
:1006D0000FCCD2CE1EDCB38333B0B08838B8A38F32
:1006E0002FAC6040206051451554C3C707C4404437
:1006F0000444634F2F6C634B2B68534B1B58C3C38D
:1007000003C06242226033033330B18535B421091E
:100710002928A08020A0E2C222E0A38727A4D3C377
:1007200013D0918111901101111002060604100CD2
:100730001C1CB08C3CBC32063634434B0B48E3CF18
:100740002FEC80880888604C2C6CA08828A81307A0
:100750001714C0C404C412061614F0C434F4C2C280
:1007600002C041450544E1C121E0D2C616D4330F91
:100770003F3C310D3D3C828E0E8C908818982008AD
:100780002828424E0E4CF2C636F4320E3E3CA1856D
:1007900025A4F1C939F8010D0D0CD3CF1FDCD0C849
:1007A00018D8230B2B2862462664724A3A7823070E
:1007B0002724230F2F2CF1C131F0724232704242B4
:1007C0000240D0C414D441410140C0C000C07343B2
:1007D000337063472764A08C2CAC838B0B88F3C7E2
:1007E00037F4A18D2DAC80800080130F1F1CC2CA6E
:1007F0000AC8200C2C2CA28A2AA830043434D2C275
:1008000012D0030B0B08E2CE2EECE1C929E8514DC2
:100810001D5C9084149410081818F0C838F85347D9
:100820001754A28E2EAC00080808C1C505C41303D6
:100830001310C1CD0DCC82860684B18939B8F3CFAF
:100840003FFC714D3D7CC1C101C031013130F1C56A
:1008500035F4828A0A88624A2A68B18131B0D1C1EE
:1008600011D020002020D3C717D402020200220298
:100870002220000404046048286871413170030795
:100880000704D3CB1BD8918D1D9C91891998614188
:100890002160B28E3EBCE2C626E451491958D1CD42
:1008A0001DDC5141115090801090D0CC1CDC928AFC
:1008B0001A98A38323A0A38B2BA8D0C010D081812A
:1008C0000180030F0F0C43470744120A1A18E3C3B1
:1008D00023E0E0CC2CEC818D0D8CB38F3FBC928655
:1008E0001694734B3B78504C1C5CA28222A0A181D1
:1008F00021A06343236023032320414D0D4CC0C836
:1009000008C8928E1E9C908C1C9C320A3A38000CAF
:100910000C0C220E2E2CB28A3AB8624E2E6C938F9B
:100920001F9C524A1A58F2C232F092821290F3C3BC
:1009300033F04149094870483878C0CC0CCC1105D7
:100940001514F3CB3BF87040307071453574734F1C
:100950003F7C310535341000101003030300604460
:100960002464614D2D6CC2C606C470443474D1C574
:1009700015D4B08434B4E2CA2AE8010909087246E1
:10098000367411091918F2CE3EFC404000401202A4
:100990001210E0C020E0B18D3DBC01050504F2CA93
:1009A0003AF801010100F0C030F0220A2A28524E24
:1009B0001E5CA18929A852461654434303408185F1
:1009C00005841004141481890988938B1B98B080C6
:1009D00030B0E1C525E4404808487149397893872B
:1009E0001794F0CC3CFC120E1E1C82820280210166
:1009F0002120808C0C8C130B1B18534F1F5C7347EA
:100A0000377450441454B28232B0110D1D1C2105AC
:100A10002524434F0F4C0000000042460644E1CD20
:100A20002DEC5048185852421250E3CB2BE8724E2E
:100A30003E7CD2CA1AD8C1C909C8F1CD3DFC3000EC
:100A400030309185159461452564300C3C3CB2866C
:100A500036B4E0C424E4B38B3BB8704C3C7C020E4B
:100A60000E0C50401050310939382206262432022B
:100A7000323080840484614929689383139033075A
:100A80003734E3C727E420042424A08424A4C3CB60
:100A90000BC853431350020A0A0883870784D1C93D
:100AA00019D8404C0C4C83830380838F0F8CC2CEAB
:100AB0000ECC330B3B38424A0A48B38737B48929F6
:100AC000A8A185058481C616D4D2C313D0D34414FB
:100AD00054500D1D1C118C2CACA0052524214D1D3E
:100AE0005C5143034043081818100E1E1C1241119C
:100AF0005051CC3CFCF0CA0AC8C2432360630828AA
:100B0000282044044440002020208D1D9C91C020BA
:100B1000E0E0C222E0E2C808C8C007171413852528
:100B2000A4A18F0F8C83030300034B3B78738B3B93
:100B3000B8B303131013C212D0D2CE2EECE2403061
:100B400070708C0C8C800F3F3C338828A8A0023238
:100B50003032CD1DDCD1C636F4F244347470CC2C66
:100B6000ECE0851594910B0B0803471754534C1C6C
:100B70005C504B1B58538D3DBCB101010001042456
:100B800024200C1C1C10433370738818989000109C
:100B90001010CC0CCCC0C232F0F2C919D8D10C2C38
:100BA0002C20C727E4E342327072830380838B1BBF
:100BB0009893C111D0D186068482C909C8C140204A
:100BC0006060401050508323A0A3CB2BE8E30D0DB1
:100BD0000C018636B4B28E1E9C924F0F4C43873761
:100BE000B4B34A1A5852C606C4C24838787086262A
:100BF000A4A2021210128F2FACA3C515D4D141218B
:100C00006061C303C0C38434B4B0410140414212A7
:100C100050524D3D7C718D0D8C81080808000F1FCE
:100C20001C13891998910000000009191811040477
:100C3000040043135053C737F4F3C121E0E1CD3D25
:100C4000FCF1463674720F2F2C23072724238030A3
:100C5000B0B08B0B88830E0E0C028B2BA8A38222C4
:100C6000A0A24E2E6C62831390934D0D4C414929E6
:100C700068614C3C7C70090908010A0A08028F3F30
:100C8000BCB3CF2FECE3C333F0F3C505C4C1870772
:100C9000848304141410CE3EFCF244246460CE1EFF
:100CA000DCD20E2E2C224B0B48430A1A18120606D1
:100CB0000402012120214B2B686346266462020254
:100CC0000002C535F4F1821290928A0A88820C0CD7
:100CD0000C008333B0B34E3E7C72C010D0D04A3A81
:100CE00078724707444386169492C525E4E10626A8
:100CF0002422800080808D2DACA1CF1FDCD38121E8
:100D0000A0A100303030073734338E2EACA2063627
:100D10003432051514110222202208383830C43428
:100D2000F4F08727A4A3450544414C0C4C408101B5
:100D30008081C929E8E1840484808717949305356C
:100D40003431CB0BC8C3CE0ECCC20C3C3C3041314D
:100D5000707101111011C707C4C389098881453515
:100D60007471CB3BF8F3CA1AD8D2C838F8F084149F
:100D700094904919585182028082C404C4C0CF3F64
:100D8000FCF3490948410939383147276463C000F9
:100D9000C0C0CF0FCCC3C717D4D38838B8B00F0F9B
:100DA0000C038E0E8C8242024042032320238111C9
:100DB00090914C2C6C60CB1BD8D38424A4A0043419
:100DC0003430C131F0F148084840C202C0C24F2F50
:100DD0006C630D3D3C310D2D2C21400040408E3E7A
:100DE000BCB20E3E3C328C3CBCB0C101C0C18A2AB0
:100DF000A8A28A3AB8B24E0E4C42451554510B3B4C
:100E00003833CC1CDCD0482868604F3F7C738C1C86
:100E10009C90C818D8D04A0A4842461654524737C0
:100E200074738020A0A0CD2DECE1460644428535A8
:100E3000B4B10B2B282345256461CA3AF8F2C323C9
:100E4000E0E38939B8B18131B0B18F1F9C934E1E58
:100E50005C52C939F8F1C626E4E28232B0B20131FF
:100E60003031CA2AE8E24D2D6C614F1F5C53C42417
:100E7000E4E0C030F0F0CD0DCCC1880888800616C3
:100E800014120A3A383248185850C414D4D04222A6
:100E90006062092928210707040303333033C82877
:100EA000E8E00B1B1813050504014939787180101F
:100EB00090904A2A68620A2A28228A1A9892383818
:100EC000300828E8E0C82D2C210D26A4A2860FCCDE
:100ED000C3CF1EDCD2CE33B0B38338B8B0882FACCA
:100EE000A38F206060401554514507C4C3C7044414
:100EF00040442F6C634F2B68634B1B58534B03C00C
:100F0000C3C3226062423330330335B4B18529282C
:100F1000210920A0A08022E0E2C227A4A38713D049
:100F2000D3C31190918111101101060402061C1CFB
:100F3000100C3CBCB08C363432060B48434B2FECC3
:100F4000E3CF088880882C6C604C28A8A0881714F0
:100F5000130704C4C0C41614120634F4F0C402C04B
:100F6000C2C20544414521E0E1C116D4D2C63F3C8E
:100F7000330F3D3C310D0E8C828E189890882828B6
:100F800020080E4C424E36F4F2C63E3C320E25A4EA
:100F9000A18539F8F1C90D0C010D1FDCD3CF18D88C
:100FA000D0C82B28230B266462463A78724A27243D
:100FB00023072F2C230F31F0F1C13270724202400F
:100FC000424214D4D0C40140414100C0C0C033707B
:100FD0007343276463472CACA08C0B88838B37F456
:100FE000F3C72DACA18D008080801F1C130F0AC891
:100FF000C2CA2C2C200C2AA8A28A3434300412D065
:10100000D2C20B08030B2EECE2CE29E8E1C91D5C2D
:10101000514D149490841818100838F8F0C81754DB
:1010200053472EACA28E0808000805C4C1C5131092
:1010300013030DCCC1CD0684828639B8B1893FFC3B
:10104000F3CF3D7C714D01C0C1C13130310135F468
:10105000F1C50A88828A2A68624A31B0B18111D00A
:10106000D1C12020200017D4D3C7020002022220C1
:1010700022020404000428686048317071410704AA
:1010800003071BD8D3CB1D9C918D199891892160A2
:1010900061413EBCB28E26E4E2C6195851491DDCBE
:1010A000D1CD11505141109090801CDCD0CC1A98B9
:1010B000928A23A0A3832BA8A38B10D0D0C0018039
:1010C00081810F0C030F074443471A18120A23E0CB
:1010D000E3C32CECE0CC0D8C818D3FBCB38F169418
:1010E00092863B78734B1C5C504C22A0A28221A0BC
:1010F000A18123606343232023030D4C414D08C885
:10110000C0C81E9C928E1C9C908C3A38320A0C0CE3
:10111000000C2E2C220E3AB8B28A2E6C624E1F9C06
:10112000938F1A58524A32F0F2C21290928233F0E0
:10113000F3C309484149387870480CCCC0CC151429
:1011400011053BF8F3CB30707040357471453F7C2E
:10115000734F35343105101010000300030324646D
:1011600060442D6C614D06C4C2C63474704415D4FD
:10117000D1C534B4B0842AE8E2CA0908010936743A
:101180007246191811093EFCF2CE00404040121080
:10119000120220E0E0C03DBCB18D050401053AF823
:1011A000F2CA0100010130F0F0C02A28220A1E5CB8
:1011B000524E29A8A1891654524603404343058440
:1011C000818514141004098881891B98938B30B091
:1011D000B08025E4E1C50848404839787149179442
:1011E00093873CFCF0CC1E1C120E028082822120D0
:1011F00021010C8C808C1B18130B1F5C534F377410
:1012000073471454504432B0B2821D1C110D252472
:1012100021050F4C434F00000000064442462DECD0
:10122000E1CD18585048125052422BE8E3CB3E7C97
:10123000724E1AD8D2CA09C8C1C93DFCF1CD3030AE
:10124000300015949185256461453C3C300C36B4E2
:10125000B28624E4E0C43BB8B38B3C7C704C0E0CEB
:10126000020E1050504039383109262422063230FF
:10127000320204848084296861491390938337344F
:10128000330727E4E3C72424200424A4A0840BC844
:10129000C3CB135053430A08020A0784838719D823
:1012A000D1C90C4C404C038083830F8C838F0ECCB0
:1012B000C2CE3B38330B0A48424A37B4B3871124B5
:1012C0001FBECFEFD0E1DEBFCDBF12E0A0E0B1E0A6
:1012D000E8EEFEE301E00BBF02C007900D92AA39D1
:1012E000B107D9F71BE0AAE9B2E001C01D92A33C07
:1012F000B107E1F70C947E090C940000EF92FF9285
:101300000F931F93CF93DF93CDB7DEB7E5E5F0E002
:1013100080E88083EDE6F0E08AE08083E7E5F0E0B6
:1013200080E88083E3E4F0E086EE8083E4E4F0E0AC
:101330001082E5E4F0E083E08083EFE4F0E01082E7
:10134000EEE4F0E083E08083A2E6B0E0E2E6F0E0E5
:10135000808182608C93A1E6B0E0E1E6F0E08081DC
:1013600082608C93A7E3B0E0E7E3F0E08081806CDB
:101370008C93A7E3B0E0E7E3F0E0808181648C9395
:10138000E2E2F0E08081E2E2F0E08FEF8083A4E629
:10139000B0E0E4E6F0E0808183608C93A1E3B0E00C
:1013A000E1E3F0E0808180688C93AAE6B0E0EAE6B1
:1013B000F0E080818C93A9E5B0E0E9E5F0E0808180
:1013C00081608C93EE24FF2400E010E023E030E005
:1013D00040E05BE460E070E080E090E00E94232F5A
:1013E000EE24FF2400E010E023E030E040E855E286
:1013F00060E070E081E090E00E94232FEE24FF2463
:1014000000E010E023E030E040E855E260E070E00A
:1014100082E090E00E94232FEE24FF2400E010E001
:1014200023E030E040E05BE460E070E083E090E0E7
:101430000E94232FEE24FF2400E010E023E030E0A0
:1014400040E05BE460E070E084E090E00E94232FE5
:10145000EE24FF2400E010E023E030E040E855E215
:1014600060E070E085E090E00E94232F60E080E083
:1014700090E00E94E12F60E081E090E00E94E12F87
:1014800060E082E090E00E94E12F60E083E090E085
:101490000E94E12F60E084E090E00E94E12F60E094
:1014A00085E090E00E94E12F0E94153A0E94857B22
:1014B0000E94C73A78940E9485100E9493110E945E
:1014C00088130E94CF140E94203B80919E0281309D
:1014D00041F410929E021092C1021092C0020E942A
:1014E000837E8091A202882309F44EC08091D702A6
:1014F0009091D802009709F047C08091EF02909137
:10150000F002009709F040C08091FB029091FC022C
:101510000097D1F580910703909108030097A1F5FA
:101520001092A2028091AE02843641F48091AE0204
:101530008F5F8093AE0285E080930E0A8091A309AD
:10154000882361F08091A30981508093A3096AE008
:1015500070E089E191E00E94860F16C080910E0A2A
:10156000882361F080910E0A815080930E0A66E014
:1015700070E083E491E00E94860F06C06CE070E0AA
:1015800080E090E00E94860F8091A3028823D1F131
:101590008091D7029091D8020097A1F58091EF0237
:1015A0009091F002009771F58091070390910803E4
:1015B000009741F58091FB029091FC02009711F594
:1015C0001092A3028091CC028F5F8093CC02809115
:1015D000CC029FEF692F0E94409E892F8093CC02FE
:1015E0008091CC029AE0692F0E94409E892F882327
:1015F00039F48091820B813019F40E94390C02C0B9
:101600000E94590F8091CA02882309F18091CB0270
:101610008823E9F01092CB028091D7029091D802F2
:101620000097A9F48091EF029091F002009779F46D
:101630008091FB029091FC02009749F48091FE0991
:101640009091FF099070009711F40E94337C809173
:10165000A902882309F44CC08091EF029091F00216
:10166000009709F045C08091FB029091FC02009721
:1016700009F03EC080910703909108030097C1F5DF
:101680001092A9028091820B882321F48091D002CC
:10169000882371F18091CF02882341F180910A0A59
:1016A000813059F480910B0A882339F481E08093CA
:1016B0000B0A83E00E94DC0C1BC08091C8028823C7
:1016C00031F01092C80282E00E94DC0C11C08091BF
:1016D000C902992781709070882311F00E94BF0F72
:1016E0008091C9028F5F8093C90202C00E948E0B55
:1016F000A8E3B0E0E8E3F0E090818EEF89238C93DB
:10170000A8E3B0E0E8E3F0E08081982FE8E3F0E0C0
:10171000808180958170892B8C93CDCECF93DF9380
:10172000CDB7DEB79091F7098091850B9817A8F097
:101730009091F8098091860B981778F09091F909AB
:101740008091870B981748F09091FA098091880B47
:10175000981718F081E08093CF02DF91CF91089520
:10176000CF93DF93CDB7DEB761970FB6F894DEBFA6
:101770000FBECDBF9C878B878B859C859E012F5F7D
:101780003F4F3E872D87988B8F873AE0398BEF85C7
:10179000F88900802F8538892F5F3F4F388B2F873E
:1017A000ED85FE8500822D853E852F5F3F4F3E876C
:1017B0002D8739893150398B8989882341F7809168
:1017C000FE099091FF099070009709F449C08B853C
:1017D0009C85FC01329680818823C9F18B859C858C
:1017E000FC0133968081882391F18B859C85FC01D7
:1017F00034968081882359F18B859C85FC01359630
:101800008081882321F18885813151F5898199274B
:10181000382F22278A819927822B932B9093840B30
:101820008093830B8B818093850B8C818093860BB7
:101830008D818093870B8E818093880B8F8180931D
:10184000890B81E08093D0020E94F73B09C0888514
:10185000843431F481E08093D00281E08093CF0220
:1018600061960FB6F894DEBF0FBECDBFDF91CF916A
:1018700008950F93CF93DF93CDB7DEB727970FB6B9
:10188000F894DEBF0FBECDBF80913B03823360F082
:101890008AE0EDE4F3E0DF01982F1D929A95E9F7D5
:1018A00084E48093540373C08091830B9091840BE4
:1018B000892F99279070009721F4A0914D03AF8351
:1018C00007C08091830B9091840B892F99278F8378
:1018D000BF81B0934D038091830B9091840B9070E6
:1018E000009721F480914E038E8305C08091830B75
:1018F0009091840B8E839E8190934E038091850BF3
:10190000882321F4A0914F03AD8303C0B091850BD0
:10191000BD838D8180934F038091860B882321F4B2
:10192000909150039C8303C0A091860BAC83BC8133
:10193000B09350038091870B882321F48091510349
:101940008B8303C09091870B9B83AB81A093510342
:101950008091880B882321F4B0915203BA8303C08D
:101960008091880B8A839A81909352038091890B8E
:10197000882321F4A0915303A98303C0B091890B5C
:10198000B98389818093530381E1809354038DE46B
:1019900093E003E09C0144E050E068E770E180E000
:1019A0000E94570E27960FB6F894DEBF0FBECDBF2C
:1019B000DF91CF910F910895CF93DF93CDB7DEB72D
:1019C0006A970FB6F894DEBF0FBECDBF8D8B8AEA43
:1019D00089838D898A83CE0103969F8B8E8B86EFB8
:1019E00099E0998F888F96E09A8FE88DF98D008025
:1019F000888D998D0196998F888FEE89FF89008255
:101A00008E899F8901969F8B8E8B9A8D91509A8F8C
:101A1000EA8DEE2351F768E070E0CE0101960E9456
:101A2000121624E130E04AE050E0CE010196BC01FC
:101A300080E090E00E9429306A960FB6F894DEBFED
:101A40000FBECDBFDF91CF9108950F93CF93DF935A
:101A5000CDB7DEB7CB53D1400FB6F894DEBF0FBE83
:101A6000CDBFFE01EE5CFE4F8083FE01ED5CFE4FBC
:101A700071836083FE01EB5CFE4F51834083FE0166
:101A8000E95CFE4F31832083FE01E75CFE4F00835B
:101A90001D821C821B82FE01EB5CFE4F80819181C6
:101AA000C65CDE4F99838883CA53D140C65CDE4F43
:101AB00088819981CA53D14099236CF4C65CDE4F6A
:101AC00088819981CA53D1400796C65CDE4F9983BD
:101AD0008883CA53D140C65CDE4F88819981CA533E
:101AE000D1409595879595958795959587958B8305
:101AF0002C813D81CE010696DC01A20FB31FFE01B1
:101B0000EE5CFE4F80818C938C819D8101969D833C
:101B10008C832C813D81CE010696FC01E20FF31FE0
:101B20008FE080838C819D8101969D838C834C8185
:101B30005D81FE01ED5CFE4F80819181892F990FBF
:101B4000990B982F8FEF292F2823CE010696FC01A1
:101B5000E40FF51F20838C819D8101969D838C83EA
:101B60004C815D81FE01ED5CFE4F8081982F8FEFEF
:101B7000292F2823CE010696FC01E40FF51F2083B0
:101B80008C819D8101969D838C834C815D81FE01BA
:101B9000EB5CFE4F80819181892F990F990B982FD3
:101BA0008FEF292F2823CE010696FC01E40FF51FA5
:101BB00020838C819D8101969D838C834C815D81E6
:101BC000FE01EB5CFE4F8081982F8FEF292F282399
:101BD000CE010696FC01E40FF51F20838C819D81C8
:101BE00001969D838C832C813D81CE010696FC015C
:101BF000E20FF31F8B8180838C819D8101969D83F1
:101C00008C831A8219821EC04C815D8189819A81E0
:101C10009C01FE01E95CFE4F80819181F901E80F92
:101C2000F91F2081CE010696FC01E40FF51F2083E9
:101C30008C819D8101969D838C8389819A810196F7
:101C40009A8389838B81282F332789819A818217F0
:101C50009307D4F22C813D818C819D8101969D83D7
:101C60008C83CE010696B9010E9412168C819D814B
:101C700001969D838C83FE01E75CFE4F8081E82FF7
:101C8000FF278C819D81BE016A5F7F4F24E130E098
:101C9000AC01CF010E942930C55CDE4F0FB6F8942D
:101CA000DEBF0FBECDBFDF91CF910F9108950F938F
:101CB000CF93DF93CDB7DEB7C953D1400FB6F894B9
:101CC000DEBF0FBECDBFFE01EE5CFE4F8083FE0186
:101CD000ED5CFE4F71836083FE01EB5CFE4F518330
:101CE0004083FE01E95CFE4F31832083FE01E75C07
:101CF000FE4F00831D821C821B82FE01EB5CFE4FA7
:101D000080819181880F991F9C838B838D81282FDF
:101D10003327CE010696DC01A20FB31FFE01EE5C55
:101D2000FE4F80818C938D818F5F8D838D81282FD5
:101D30003327CE010696FC01E20FF31F80E180837A
:101D40008D818F5F8D838D81482F5527FE01ED5C3E
:101D5000FE4F80819181892F990F990B982F8FEFDA
:101D6000292F2823CE010696FC01E40FF51F2083BE
:101D70008D818F5F8D838D81482F5527FE01ED5C0E
:101D8000FE4F8081982F8FEF292F2823CE010696B2
:101D9000FC01E40FF51F20838D818F5F8D838D8182
:101DA000482F5527FE01EB5CFE4F80819181892FE2
:101DB000990F990B982F8FEF292F2823CE01069684
:101DC000FC01E40FF51F20838D818F5F8D838D8152
:101DD000482F5527FE01EB5CFE4F8081982F8FEF37
:101DE000292F2823CE010696FC01E40FF51F20833E
:101DF0008D818F5F8D838D81282F33274B81CE017D
:101E00000696FC01E20FF31F40838D818F5F8D8367
:101E10001A8219821DC08D81482F552789819A8188
:101E20009C01FE01E95CFE4F80819181F901E80F80
:101E3000F91F2081CE010696FC01E40FF51F2083D7
:101E40008D818F5F8D8389819A8101969A838983A1
:101E500029813A818B819C8128173907E4F28D8191
:101E6000282F33278D818F5F8D83CE010696B90190
:101E70000E9412168D818F5F8D838D81482F55278B
:101E8000FE01E75CFE4F8081E82FFF27CE0106961A
:101E90002AE030E0BC01CF010E942930C75CDE4F50
:101EA0000FB6F894DEBF0FBECDBFDF91CF910F917B
:101EB0000895CF93DF93CDB7DEB72A970FB6F89486
:101EC000DEBF0FBECDBF198283E08A838CE08B8397
:101ED0001C821D8289E98E8366E070E0CE01019646
:101EE0000E94121624E130E048E050E0CE01019655
:101EF000BC0183E090E00E9429302A960FB6F89446
:101F0000DEBF0FBECDBFDF91CF910895CF93DF939A
:101F1000CDB7DEB72E970FB6F894DEBF0FBECDBF9C
:101F20009C878B877E876D87198283E08A838B8568
:101F30009C85892F99278B838B858C838D859E85A6
:101F4000892F99278D838D858E8366E070E0CE0181
:101F500001960E94121624E130E048E050E0CE01E4
:101F60000196BC0182E090E00E9429302E960FB6C7
:101F7000F894DEBF0FBECDBFDF91CF910895CF9310
:101F8000DF93CDB7DEB7C353D1400FB6F894DEBFB1
:101F90000FBECDBFCE01039604969A838983CE01EE
:101FA000039604969C0148E251E063E070E087E00C
:101FB0000E9414178091FE099091FF090097B9F0D3
:101FC00089819A81FC01E25EFE4FDE01A15DBE4F78
:101FD0008081918111969C938E93FE01E15DFE4F6D
:101FE00080818260FE01E15DFE4F808314C08981A3
:101FF0009A81FC01B296DE01A15DBE4F8081918184
:102000008D939C93FE01E15DFE4F81818160FE0115
:10201000E15DFE4F81838AEA8B8381E08C8380912E
:102020000A088D8380910B088E8380910A08992776
:10203000382F222780910B089927822B932B90937E
:10204000CE028093CD0289819A81DC019296FE01B5
:10205000E15DFE4F808191818D939C9389819A816E
:1020600028E0FC01DF01822F1D928A95E9F7898122
:102070009A8184509F4F28E0FC01DF01822F1D923E
:102080008A95E9F78091250390912603892F992756
:10209000E981FA8180838091250390912603E9816B
:1020A000FA8181838091270390912803892F9927B2
:1020B000282F89819A81FC01E450FF4F2083809171
:1020C000270390912803282F89819A81FC01E350EE
:1020D000FF4F2083CE01039662E271E00E94121648
:1020E000CE01039624E130E044E251E0BC0180E0FF
:1020F00090E00E942930CD5CDE4F0FB6F894DEBF31
:102100000FBECDBFDF91CF910895CF93DF93CDB7B1
:10211000DEB764970FB6F894DEBF0FBECDBFCE0119
:10212000059660E170E00E94DA339A8389838981A1
:102130009A81009709F486C080919A02882321F43D
:102140001092B9021092B8028AE080939A0220910C
:10215000B8023091B90289819A81820F931F8E3122
:1021600091052CF01092B9021092B8026BC01C823B
:102170001B8260C04091B8025091B9022B813C8112
:10218000CE010596FC01E20FF31F8081FA01E757AB
:10219000F84F80838091B8029091B9020196909394
:1021A000B9028093B8028091B8029091B90281304F
:1021B000910509F009C0809189078A3AB1F110921E
:1021C000B9021092B80231C08091B8029091B90260
:1021D0008A30910554F180918A07882359F08091C3
:1021E0008B07882339F48091AE02853618F081E0A0
:1021F0008093C80280918C07813059F480918D07BB
:10220000813021F481E080930C0A03C082E0809346
:102210000C0A81E08093A6028091AC028F5F8093CC
:10222000AC021092B9021092B8028B819C81019687
:102230009C838B832B813C8189819A812817390764
:102240000CF498CF64960FB6F894DEBF0FBECDBFE6
:10225000DF91CF910895CF93DF93CDB7DEB762972B
:102260000FB6F894DEBF0FBECDBFCE01039660E17E
:1022700070E00E942C349A83898389819A81009727
:1022800009F448C080919B02882321F41092BB027C
:102290001092BA028AE080939B022091BA02309198
:1022A000BB0289819A81820F931F21E080349207BB
:1022B0002CF01092BB021092BA022CC06091BA02AC
:1022C0007091BB02CE01039649815A819C0181E045
:1022D0000E946C172091BA023091BB0289819A81C9
:1022E000820F931F9093BB028093BA028091BA022F
:1022F0009091BB0221E08132920764F081E08093EB
:10230000A7028091AD028F5F8093AD021092BB0255
:102310001092BA0262960FB6F894DEBF0FBECDBF20
:10232000DF91CF910895CF93DF93CDB7DEB76E974E
:102330000FB6F894DEBF0FBECDBF18861F8280E4B3
:102340009AE09C838B8380E19AE09A838983CE0113
:102350000B9660E170E00E947E349E838D838D81B8
:102360009E81009709F4C4C180919C02882321F4C6
:102370001092BD021092BC028AE080939C022091D0
:10238000BC023091BD028D819E81820F931F8032ED
:1023900091052CF01092BD021092BC02A9C11A86C0
:1023A00019869EC14091BC025091BD0229853A8593
:1023B000CE010B96FC01E20FF31F8081FA01EB5076
:1023C000F84F80838091BC029091BD02019690935A
:1023D000BD028093BC028091BC029091BD029E8F91
:1023E0008D8F8D8D9E8D8130910531F08D8D9E8DDF
:1023F0008230910559F014C08091F507882309F4C3
:102400006AC11092BD021092BC0265C18091F607AC
:10241000833009F460C11092BD021092BC025BC10E
:102420008091A309882309F442C08091BC02909155
:10243000BD02873191050CF44EC11A8619862AC057
:1024400089859A85880F991F9C018B819C81D90170
:10245000A80FB91F89859A85880F991F0396FC01DB
:10246000EB50F84F80819927382F222789859A854C
:10247000880F991F0496FC01EB50F84F8081992733
:10248000822B932B11969C938E9389859A85019626
:102490009A87898789859A858A3091058CF281E0AF
:1024A0008093A8021092BD021092BC0214C18091C8
:1024B0000E0A882309F447C08091BC029091BD02A6
:1024C0008F3091050CF407C11A8619862AC08985B8
:1024D0009A85880F991F9C0189819A81D901A80F3B
:1024E000B91F89859A85880F991F0396FC01EB50C7
:1024F000F84F80819927382F222789859A85880F60
:10250000991F0496FC01EB50F84F80819927822B8C
:10251000932B11969C938E9389859A8501969A8721
:10252000898789859A85863091058CF281E0809330
:10253000A8021092BD021092BC028091AE028F5F81
:102540008093AE02C8C08091BC029091BD028B31D5
:1025500091050CF4C0C04091BC025091BD0285EFC2
:1025600097E09C0160E070E082E00E946C1780912F
:10257000F9078093F4098091FB078093F509809116
:10258000FD078093F6098091FF078093F7098091FA
:1025900001088093F809809103088093F9098091DC
:1025A00005088093FA09809107088093FB098091C0
:1025B00008089927382F2227809109089927822B0C
:1025C000932B9093FD098093FC0980910A08992729
:1025D000382F222780910B089927822B932B24E6F2
:1025E00030E0B9010E944C9ECB012AE030E0B901F5
:1025F0000E944C9E9093FF098093FE0980910C08E5
:102600009927382F222780910D089927822B932B09
:1026100098878F838F81988522E08C3B920778F092
:102620008F8198859C8F8B8F8B8D9C8D23E0893E2D
:10263000920748F088EE93E09C8F8B8F04C08CEB60
:1026400092E09C8F8B8F8B8D9C8D9093010A809351
:10265000000A80910E089927982F8827982F80913B
:102660000F08892B8093020A8091020A843699F020
:102670008091020A853679F08091020A883C21F423
:1026800085E08093A30907C08091020A8C3D19F46C
:1026900085E080930E0A8091020A843610F0109231
:1026A000020A8091020A882351F090918B0B80914D
:1026B000020A981721F08091020A80938B0B81E027
:1026C0008093A8028091AE028F5F8093AE02109239
:1026D000BD021092BC0289859A8501969A878987E6
:1026E00029853A858D819E81281739070CF45ACEA9
:1026F0006E960FB6F894DEBF0FBECDBFDF91CF91BF
:102700000895CF93DF93CDB7DEB7DF91CF910895D2
:10271000CF93DF93CDB7DEB7CB55D1400FB6F8944A
:10272000DEBF0FBECDBF1C821B82CE014796039633
:102730009A838983CE01079660E170E00E94D034CD
:102740009E838D838D819E81009709F41EC18091A7
:102750009D02882321F41092BF021092BE028AE0EB
:1027600080939D022091BE023091BF028D819E8197
:10277000820F931F21E0843592072CF01092BF0244
:102780001092BE0202C16091BE027091BF02CE01E2
:1027900007964D815E819C0183E00E946C17209119
:1027A000BE023091BF028D819E81820F931F909354
:1027B000BF028093BE028091BE029091BF0231E0C1
:1027C000873393070CF4E1C08091BE029091BF0261
:1027D0009E01295E3F4FAC0160E070E083E00E9403
:1027E00014178F89882309F0CCC0888D833009F0B5
:1027F000C8C0FE01E45BFE4F80818C83FE01E35B79
:10280000FE4F80818B83CE01479665E371E00E9485
:102810001216FE01E45BFE4F90818C81981709F03F
:10282000B0C0FE01E35BFE4F90818B81981709F0E9
:10283000A8C0E981FA81808D8270882349F089815E
:102840009A81FC01EC5EFE4F80818270882319F42E
:1028500010928A0B03C081E080938A0B81E0809301
:102860008A0B8091CA02882309F45DC08091D0024E
:10287000882309F058C089819A81805E9E4FE3E4E5
:10288000F3E0C95ADE4FF983E883C755D140C75AF0
:10289000DE4F99838883C955D140F8E0C55ADE4F91
:1028A000F883CB55D140C75ADE4FE881F981C9552D
:1028B000D1400080C75ADE4F28813981C955D140A7
:1028C0002F5F3F4FC75ADE4F39832883C955D14008
:1028D000C95ADE4FE881F981C755D1400082C95AF3
:1028E000DE4F28813981C755D1402F5F3F4FC95AEC
:1028F000DE4F39832883C755D140C55ADE4F388112
:10290000CB55D1403150C55ADE4F3883CB55D140DD
:10291000C55ADE4F8881CB55D140882321F683E408
:1029200093E00E94B00B8091920B882391F09091DC
:10293000920B8091930B981761F04091BE025091D9
:10294000BF02CE0147969C0160E070E088E00E94E3
:102950006C178091920B8093930B4091BE02509123
:10296000BF02CE0147969C0160E070E087E00E94C4
:102970006C1781E08093A9028091AF028F5F8093F2
:10298000AF021092BF021092BE02C55ADE4F0FB6C0
:10299000F894DEBF0FBECDBFDF91CF910895CF93E6
:1029A000DF93CDB7DEB7C856D0400FB6F894DEBF80
:1029B0000FBECDBFCE01059664E670E00E942235C1
:1029C0009C838B838B819C81009709F453C08091F9
:1029D0009E02882321F41092C1021092C0028AE064
:1029E00080939E022091C0023091C1028B819C8114
:1029F000820F931F863991052CF01092C10210921C
:102A0000C00238C01A8219822EC04091C002509173
:102A1000C10229813A81CE010596FC01E20FF31F24
:102A20008081FA01E55FFB4F80838091C002909125
:102A3000C10201969093C1028093C0028091C002AE
:102A40009091C1028130910509F008C080910B047A
:102A5000803220F41092C1021092C00289819A81C2
:102A600001969A83898329813A818B819C812817D9
:102A700039075CF2C859DF4F0FB6F894DEBF0FBEBE
:102A8000CDBFDF91CF910895CF93DF93CDB7DEB760
:102A900026970FB6F894DEBF0FBECDBF9C838B8305
:102AA0007E836D838D819E819C018B819C81D90168
:102AB000A80FB91F2D813E818B819C81820F931FAE
:102AC000FC013196108280818C931A8219822FC06A
:102AD00089819A819C01217030708D819E81820F45
:102AE000931F9C018B819C81D901A80FB91F8981FB
:102AF0009A819C01217030708D819E81820F931F7D
:102B00009C018B819C81F901E80FF91F408189812B
:102B10009A819C018B819C81F901E80FF91F8081CA
:102B200084278C9389819A8101969A83898329814C
:102B30003A818D819E812817390754F226960FB667
:102B4000F894DEBF0FBECDBFDF91CF910895CF9334
:102B5000DF93CDB7DEB72A970FB6F894DEBF0FBE6E
:102B6000CDBF9E838D8378876F831C828C818B83FE
:102B70001A82198226C089819A81AC0141705070F5
:102B800089819A819C0121703070CE010396FC01ED
:102B9000E20FF31F608189819A819C018D819E8162
:102BA000F901E80FF91F8081262F2827CE0103960F
:102BB000FC01E40FF51F208389819A8101969A8395
:102BC000898329813A818F819885281739079CF25A
:102BD0004B818F8198859C018D819E81F901E80F41
:102BE000F91F8081481761F44C812F8138858D81D0
:102BF0009E81820F931FFC0131968081481719F046
:102C00001A86198604C081E090E09A8789878985B1
:102C10009A852A960FB6F894DEBF0FBECDBFDF911E
:102C2000CF910895CF93DF93CDB7DEB72B970FB633
:102C3000F894DEBF0FBECDBF998788877B876A87F0
:102C40008FEF9FEF9E838D8329C0E885F985908162
:102C50008D8189278F8388859985019699878887B3
:102C60008D819E81892F99279E838D838F819927BE
:102C7000880F991F82549F4F9C838B83EB81FC812B
:102C8000859194919A838983FC83EB8329813A818E
:102C90008D819E81822793279E838D838A859B8544
:102CA00001979B878A878A859B852FEF8F3F9207A5
:102CB00061F68D81E885F9858083888599850196FF
:102CC000998788878D819E81892F9927E885F98545
:102CD0008083888599850196998788878D819E81D3
:102CE0002B960FB6F894DEBF0FBECDBFDF91CF910C
:102CF0000895CF93DF93CDB7DEB72E970FB6F89434
:102D0000DEBF0FBECDBF9C878B877E876D87198600
:102D10008B859C852AE030E0B9010E944C9E805D45
:102D200088878B859C852AE030E0B9010E944C9E03
:102D3000CB012AE030E0B9010E944C9E805D8F8378
:102D40008B859C8524E630E0B9010E944C9ECB0126
:102D50002AE030E0B9010E944C9E805D8E838B8515
:102D60009C8528EE33E0B9010E944C9ECB012AE0FD
:102D700030E0B9010E944C9E805D8D838B859C85DF
:102D800020E137E2B9010E944C9ECB012AE030E0FD
:102D9000B9010E944C9E805D8C838B859C85AA27FF
:102DA000BB2720EA36E841E050E0BC01CD010E949B
:102DB000959EDA01C9012AE030E040E050E0BC0114
:102DC000CD010E94959EDC01CB01805D8B831A8230
:102DD00019820FC029813A81CE010396FC01E20FCE
:102DE000F31F8081803351F489819A8101969A83FF
:102DF000898389819A818530910564F389819A81DB
:102E00009C01CE010396820F931F2D853E85BC0148
:102E1000C9010E940C9E2E960FB6F894DEBF0FBE1D
:102E2000CDBFDF91CF910895CF93DF93CDB7DEB7BC
:102E30002C970FB6F894DEBF0FBECDBF8E83788778
:102E40006F835A8749873C872B871B821A82198296
:102E50008E818F7389838F81988520E030E2B9015C
:102E60000E94609E9B838A83E0E0F0EA8E818083EB
:102E70001D821C8218C08C819D819C018B859C8544
:102E8000D901A80FB91F2A813B818C819D81820FB6
:102E9000931F8050904AFC0180818C938C819D818E
:102EA00001969D838C832C813D8189859A85281785
:102EB00039070CF3898199278050904AFC01808161
:102EC000992787FD90952C960FB6F894DEBF0FBE1C
:102ED000CDBFDF91CF910895CF93DF93CDB7DEB70C
:102EE0002C970FB6F894DEBF0FBECDBF8E837887C8
:102EF0006F835A8749873C872B871B821A821982E6
:102F00008E818F7389838F81988520E030E2B901AB
:102F10000E94609E9B838A83E0E0F0EA898180833F
:102F20001D821C8218C02A813B818C819D81820F69
:102F3000931F8050904ADC018C819D819C018B8580
:102F40009C85F901E80FF91F80818C938C819D810C
:102F500001969D838C832C813D8189859A852817D4
:102F600039070CF32C960FB6F894DEBF0FBECDBF19
:102F7000DF91CF9108951F920F920FB60F921124F7
:102F80002F933F934F935F936F937F938F939F9371
:102F9000AF93BF93EF93FF93CF93DF93CDB7DEB79C
:102FA000E4E4F0E010820E94B2380E940F7B0E949D
:102FB000519780910001909101018A569F4F2CE218
:102FC00031E0B9010E944C9E009719F481E0809392
:102FD000A20280910001909101012CE231E0B9013F
:102FE0000E944C9E009719F481E08093A302809187
:102FF000CA02882359F4809100019091010123ECC9
:103000008135920718F081E08093CA028091000117
:103010009091010124E630E0B9010E944C9E009796
:1030200019F081E08093CB02809100019091010121
:1030300080729070009749F0A2E6B0E0E2E6F0E01E
:1030400090818DEF89238C9307C0A2E6B0E0E2E681
:10305000F0E0808182608C9380919A02882329F02D
:1030600080919A02815080939A0280919B028823DA
:1030700029F080919B02815080939B0280919C0259
:10308000882329F080919C02815080939C0280913A
:103090009D02882329F080919D02815080939D029A
:1030A00080919E02882329F080919E028150809316
:1030B0009E0280919F02882329F080919F02815077
:1030C00080939F028091000190910101019690935D
:1030D000010180930001DF91CF91FF91EF91BF91AA
:1030E000AF919F918F917F916F915F914F913F91A0
:1030F0002F910F900FBE0F901F9018951F920F9257
:103100000FB60F9211242F933F934F935F936F93BA
:103110007F938F939F93AF93BF93EF93FF93CF933F
:10312000DF93CDB7DEB70E94C635DF91CF91FF9117
:10313000EF91BF91AF919F918F917F916F915F912F
:103140004F913F912F910F900FBE0F901F901895A8
:10315000CF92DF92EF92FF920F931F93CF93DF9363
:10316000CDB7DEB7C056D0400FB6F894DEBF0FBE65
:10317000CDBFFE01EF5AFF4F91838083FE01ED5AD0
:10318000FF4F71836083FE01EB5AFF4F2083318331
:1031900042835383FE01E75AFF4FE082F1820283AC
:1031A0001383FE01E35AFF4FD182C082FE01E35A2E
:1031B000FF4F0190F081E02D2081318142815381C8
:1031C000BE01635B7F4FFE01EB5AFF4F808191810F
:1031D000A281B38182279327A427B527FB0180838F
:1031E0009183A283B383FE01E35AFF4F80819181D3
:1031F000FC0134962081318142815381BE01675B9D
:103200007F4FFE01E75AFF4F80819181A281B381F8
:1032100082279327A427B527FB0180839183A2836C
:10322000B383BE01675B7F4FFE01E75BFF4FDE01AB
:10323000A35BBF4F20813181428153818D919D914C
:103240000D90BC91A02D82279327A427B527FB01C1
:1032500080839183A283B383FE01E75BFF4F80816C
:103260009927880F991F880F991F82549D4FFE013F
:10327000E95BFF4F91838083FE01E95BFF4F019083
:10328000F081E02DA196FFAFEEAFA197A196EEAD34
:10329000FFADA19785919591A591B4919F01FE01F4
:1032A000ED5BFF4F80839183A283B383FE01E95BD3
:1032B000FF4F31832083FE01ED5BFF4F4081518141
:1032C00062817381FE01E75BFF4F80819181A28162
:1032D000B381892F9A2FAB2FBB279927880F991F6E
:1032E000880F991F8254994FFE01EF5BFF4F918326
:1032F0008083FE01EF5BFF4F0190F081E02DA196EE
:10330000FFAFEEAFA197A196EEADFFADA19785916E
:103310009591A591B4919F01FE01FD9680839183C3
:10332000A283B383FE01EF5BFF4F31832083FE0155
:10333000FD9680819181A281B3819A01AB012827FA
:1033400039274A275B27FE01E75BFF4F8081918188
:10335000A281B381CD01AA27BB279927880F991F86
:10336000880F991F8254954F9CAF8BAFEBADFCAD8E
:1033700085919591A591B4918FAB98AFA9AFBAAF54
:10338000FCAFEBAF8FA998ADA9ADBAAD282739270F
:103390004A275B27FE01E75BFF4F80819181A28175
:1033A000B3818B2F9927AA27BB279927880F991FAD
:1033B000880F991F8254914F9EAB8DABEDA9FEA94A
:1033C00085919591A591B49189AB9AABABABBCAB10
:1033D000FEABEDAB89A99AA9ABA9BCA9FE01E75B3D
:1033E000FF4F82279327A427B52780839183A28349
:1033F000B383BE01635B7F4FFE01E35BFF4FDE01E2
:10340000A75BBF4F20813181428153818D919D9176
:103410000D90BC91A02D820F931FA41FB51FFB011F
:1034200080839183A283B383FE01E35BFF4F80819E
:103430009927880F991F880F991F82549D4F98AB29
:103440008FA7EFA5F8A985919591A591B4918BA728
:103450009CA7ADA7BEA7F8ABEFA72BA53CA54DA594
:103460005EA5FE01E35BFF4F80819181A281B38164
:10347000892F9A2FAB2FBB279927880F991F880F69
:10348000991F8254994F9AA789A7E9A5FAA5859112
:103490009591A591B4918DA39EA3AFA3B8A7FAA7C8
:1034A000E9A78DA19EA1AFA1B8A5282739274A2752
:1034B0005B27FE01E35BFF4F80819181A281B38195
:1034C000CD01AA27BB279927880F991F880F991F1D
:1034D0008254954F9CA38BA3EBA1FCA18591959160
:1034E000A591B4918F8F98A3A9A3BAA3FCA3EBA332
:1034F0008F8D98A1A9A1BAA1282739274A275B2730
:10350000FE01E35BFF4F80819181A281B3818B2F0C
:103510009927AA27BB279927880F991F880F991FDA
:103520008254914F9E8F8D8FED8DFE8D859195915B
:10353000A591B491898F9A8FAB8FBC8FFE8FED8F41
:10354000898D9A8DAB8DBC8DFE01E35BFF4F822789
:103550009327A427B52780839183A283B383BE01D9
:10356000675B7F4FFE01E75BFF4FDE01A35BBF4F51
:1035700020813181428153818D919D910D90BC912B
:10358000A02D820F931FA41FB51FFB018083918381
:10359000A283B383FE01E75BFF4F80819927880FE9
:1035A000991F880F991F82549D4F988F8F8BEF8999
:1035B000F88D85919591A591B4918B8B9C8BAD8B5A
:1035C000BE8BF88FEF8B2B893C894D895E89FE017C
:1035D000E75BFF4F80819181A281B381892F9A2F70
:1035E000AB2FBB279927880F991F880F991F8254EB
:1035F000994F9A8B898BE989FA8985919591A59143
:10360000B4918D879E87AF87B88BFA8BE98B8D85B8
:103610009E85AF85B889282739274A275B27FE0171
:10362000E75BFF4F80819181A281B381CD01AA2701
:10363000BB279927880F991F880F991F8254954F90
:103640009C878B87EB85FC8585919591A591B4919D
:103650008F839887A987BA87FC87EB878F819885A6
:10366000A985BA85282739274A275B27FE01E75B0A
:10367000FF4F80819181A281B3818B2F9927AA2747
:10368000BB279927880F991F880F991F8254914F44
:103690009E838D83ED81FE8185919591A591B49155
:1036A00089839A83AB83BC83FE83ED8389819A816E
:1036B000AB81BC81FE01E75BFF4F82279327A427E4
:1036C000B52780839183A283B383BE01635B7F4F61
:1036D000FE01E35BFF4FDE01A75BBF4F208131811D
:1036E000428153818D919D910D90BC91A02D820FAF
:1036F000931FA41FB51FFB0180839183A283B38313
:10370000FE01EF5AFF4F0190F081E02D20813181C1
:1037100042815381FE01E35BFF4F80819181A28151
:10372000B38182279327A427B527FE01EF5AFF4FC5
:103730000190F081E02D80839183A283B383FE0109
:10374000ED5AFF4F0190F081E02D208131814281BF
:103750005381FE01E75BFF4F80819181A281B3819C
:1037600082279327A427B527FE01ED5AFF4F01902A
:10377000F081E02D80839183A283B383C05ADF4F11
:103780000FB6F894DEBF0FBECDBFDF91CF911F9172
:103790000F91FF90EF90DF90CF900895AF92BF927E
:1037A000CF92DF92EF92FF920F931F93CF93DF930D
:1037B000CDB7DEB766970FB6F894DEBF0FBECDBFAC
:1037C0009C8B8B8B7E8B6D8B8D899E899A83898355
:1037D000EB89FC8980819181A281B3818B839C8359
:1037E000AD83BE838B899C89FC0134968081918155
:1037F000A281B3818F839887A987BA878B899C8997
:10380000FC01389680819181A281B3818B879C874E
:10381000AD87BE878B899C89FC013C968081918114
:10382000A281B3818F87988BA98BBA8B8B819C8166
:10383000AD81BE812B2F332744275527BA2FA92FBF
:10384000982F8827822B932BA42BB52B0F2EFFEFBD
:10385000EF2EF0E0FF2EFFEF0F2FF0E01F2FF02DE7
:10386000E822F9220A231B238B819C81AD81BE8132
:10387000292F3A2F4B2F5527B82FAA27992788276A
:10388000822B932BA42BB52B8070A0708E299F299F
:10389000A02BB12B8B839C83AD83BE838F819885B6
:1038A000A985BA852B2F332744275527BA2FA92F4F
:1038B000982F8827822B932BA42BB52B0F2EFFEF4D
:1038C000EF2EF0E0FF2EFFEF0F2FF0E01F2FF02D77
:1038D000E822F9220A231B238F819885A985BA85BE
:1038E000292F3A2F4B2F5527B82FAA2799278827FA
:1038F000822B932BA42BB52B8070A0708E299F292F
:10390000A02BB12B8F839887A987BA878B859C853D
:10391000AD85BE852B2F332744275527BA2FA92FD6
:10392000982F8827822B932BA42BB52B0F2EFFEFDC
:10393000EF2EF0E0FF2EFFEF0F2FF0E01F2FF02D06
:10394000E822F9220A231B238B859C85AD85BE8541
:10395000292F3A2F4B2F5527B82FAA279927882789
:10396000822B932BA42BB52B8070A0708E299F29BE
:10397000A02BB12B8B879C87AD87BE878F859889BD
:10398000A989BA892B2F332744275527BA2FA92F66
:10399000982F8827822B932BA42BB52B0F2EFFEF6C
:1039A000EF2EF0E0FF2EFFEF0F2FF0E01F2FF02D96
:1039B000E822F9220A231B238F859889A989BA89CD
:1039C000292F3A2F4B2F5527B82FAA279927882719
:1039D000822B932BA42BB52B8070A0708E299F294E
:1039E000A02BB12B8F87988BA98BBA8B8F85988949
:1039F000A989BA892B853C854D855E8569817A8147
:103A0000FE0137960F2EF3E0AF2EBB24F02DAC0E47
:103A1000BD1E6B017C018D01BF01C5010E94A8186C
:103A200089819A81BC01685F7F4F8F819885A985C4
:103A3000BA852B813C814D815E81FE013F960F2E20
:103A4000FBE0AF2EBB24F02DAC0EBD1E6B017C0144
:103A50008D01BF01C5010E94A81889819A81BC010E
:103A6000605F7F4F8F859889A989BA892B853C85AE
:103A70004D855E85FE0137960F2EF3E0AF2EBB24F9
:103A8000F02DAC0EBD1E6B017C018D01BF01C50187
:103A90000E94A81889819A81BC01685E7F4F8F813E
:103AA0009885A985BA852B813C814D815E81FE0177
:103AB0003F960F2EFBE0AF2EBB24F02DAC0EBD1EAB
:103AC0006B017C018D01BF01C5010E94A81889818D
:103AD0009A81BC01605E7F4F8F859889A989BA89D8
:103AE0002B853C854D855E85FE0137960F2EF3E0D4
:103AF000AF2EBB24F02DAC0EBD1E6B017C018D01E1
:103B0000BF01C5010E94A81889819A81BC01685D26
:103B10007F4F8F819885A985BA852B813C814D8106
:103B20005E81FE013F960F2EFBE0AF2EBB24F02DF1
:103B3000AC0EBD1E6B017C018D01BF01C5010E9451
:103B4000A81889819A81BC01605D7F4F8F85988913
:103B5000A989BA892B853C854D855E85FE013796FE
:103B60000F2EF3E0AF2EBB24F02DAC0EBD1E6B016B
:103B70007C018D01BF01C5010E94A81889819A812D
:103B8000BC01685C7F4F8F819885A985BA852B81A0
:103B90003C814D815E81FE013F960F2EFBE0AF2EF2
:103BA000BB24F02DAC0EBD1E6B017C018D01BF014D
:103BB000C5010E94A81889819A81BC01605C7F4F71
:103BC0008F859889A989BA892B853C854D855E8525
:103BD000FE0137960F2EF3E0AF2EBB24F02DAC0E76
:103BE000BD1E6B017C018D01BF01C5010E94A8189B
:103BF00089819A81BC01685B7F4F8F819885A985F7
:103C0000BA852B813C814D815E81FE013F960F2E4E
:103C1000FBE0AF2EBB24F02DAC0EBD1E6B017C0172
:103C20008D01BF01C5010E94A81889819A81BC013C
:103C3000605B7F4F8F859889A989BA892B853C85E0
:103C40004D855E85FE0137960F2EF3E0AF2EBB2427
:103C5000F02DAC0EBD1E6B017C018D01BF01C501B5
:103C60000E94A81889819A81BC01685A7F4F8F8170
:103C70009885A985BA852B813C814D815E81FE01A5
:103C80003F960F2EFBE0AF2EBB24F02DAC0EBD1ED9
:103C90006B017C018D01BF01C5010E94A8188981BB
:103CA0009A81BC01605A7F4F8F859889A989BA890A
:103CB0002B853C854D855E85FE0137960F2EF3E002
:103CC000AF2EBB24F02DAC0EBD1E6B017C018D010F
:103CD000BF01C5010E94A81889819A81BC01685959
:103CE0007F4F8F819885A985BA852B813C814D8135
:103CF0005E81FE013F960F2EFBE0AF2EBB24F02D20
:103D0000AC0EBD1E6B017C018D01BF01C5010E947F
:103D1000A81889819A81BC0160597F4F8F85988945
:103D2000A989BA892B853C854D855E85FE0137962C
:103D30000F2EF3E0AF2EBB24F02DAC0EBD1E6B0199
:103D40007C018D01BF01C5010E94A81889819A815B
:103D5000BC0168587F4F8F819885A985BA852B81D2
:103D60003C814D815E81FE013F960F2EFBE0AF2E20
:103D7000BB24F02DAC0EBD1E6B017C018D01BF017B
:103D8000C5010E94A8188B819C81AD81BE812B2F1B
:103D9000332744275527BA2FA92F982F8827822BFE
:103DA000932BA42BB52B0F2EFFEFEF2EF0E0FF2E61
:103DB000FFEF0F2FF0E01F2FF02DE822F9220A234A
:103DC0001B238B819C81AD81BE81292F3A2F4B2FE4
:103DD0005527B82FAA2799278827822B932BA42B06
:103DE000B52B8070A0708E299F29A02BB12B8B83BF
:103DF0009C83AD83BE838F819885A985BA852B2F3F
:103E0000332744275527BA2FA92F982F8827822B8D
:103E1000932BA42BB52B0F2EFFEFEF2EF0E0FF2EF0
:103E2000FFEF0F2FF0E01F2FF02DE822F9220A23D9
:103E30001B238F819885A985BA85292F3A2F4B2F6F
:103E40005527B82FAA2799278827822B932BA42B95
:103E5000B52B8070A0708E299F29A02BB12B8F834A
:103E60009887A987BA878B859C85AD85BE852B2FC2
:103E7000332744275527BA2FA92F982F8827822B1D
:103E8000932BA42BB52B0F2EFFEFEF2EF0E0FF2E80
:103E9000FFEF0F2FF0E01F2FF02DE822F9220A2369
:103EA0001B238B859C85AD85BE85292F3A2F4B2FF3
:103EB0005527B82FAA2799278827822B932BA42B25
:103EC000B52B8070A0708E299F29A02BB12B8B87DA
:103ED0009C87AD87BE878F859889A989BA892B2F42
:103EE000332744275527BA2FA92F982F8827822BAD
:103EF000932BA42BB52B0F2EFFEFEF2EF0E0FF2E10
:103F0000FFEF0F2FF0E01F2FF02DE822F9220A23F8
:103F10001B238F859889A989BA89292F3A2F4B2F7E
:103F20005527B82FAA2799278827822B932BA42BB4
:103F3000B52B8070A0708E299F29A02BB12B8F8765
:103F4000988BA98BBA8BEB89FC898B859C85AD8579
:103F5000BE8580839183A283B3838B899C89FC0176
:103F600034968F859889A989BA8980839183A283A1
:103F7000B3838B899C89FC0138968B819C81AD81B0
:103F8000BE8180839183A283B3838B899C89FC014A
:103F90003C968F819885A985BA8580839183A28379
:103FA000B38366960FB6F894DEBF0FBECDBFDF9128
:103FB000CF911F910F91FF90EF90DF90CF90BF9026
:103FC000AF900895AF92BF92CF92DF92EF92FF929F
:103FD0000F931F93CF93DF93CDB7DEB766970FB6DE
:103FE000F894DEBF0FBECDBF9C8B8B8B7E8B6D8B11
:103FF0008D899E899A838983EB89FC89808191814F
:10400000A281B3818B839C83AD83BE838B899C8982
:10401000FC01349680819181A281B3818F8398873E
:10402000A987BA878B899C89FC0138968081918108
:10403000A281B3818B879C87AD87BE878B899C8942
:10404000FC013C9680819181A281B3818F87988BFE
:10405000A98BBA8B8B819C81AD81BE812B2F33279D
:1040600044275527BA2FA92F982F8827822B932BC7
:10407000A42BB52B0F2EFFEFEF2EF0E0FF2EFFEF5E
:104080000F2FF0E01F2FF02DE822F9220A231B2327
:104090008B819C81AD81BE81292F3A2F4B2F5527D3
:1040A000B82FAA2799278827822B932BA42BB52BCF
:1040B0008070A0708E299F29A02BB12B8B839C83AD
:1040C000AD83BE838F819885A985BA852B2F332731
:1040D00044275527BA2FA92F982F8827822B932B57
:1040E000A42BB52B0F2EFFEFEF2EF0E0FF2EFFEFEE
:1040F0000F2FF0E01F2FF02DE822F9220A231B23B7
:104100008F819885A985BA85292F3A2F4B2F55275E
:10411000B82FAA2799278827822B932BA42BB52B5E
:104120008070A0708E299F29A02BB12B8F83988738
:10413000A987BA878B859C85AD85BE852B2F3327B4
:1041400044275527BA2FA92F982F8827822B932BE6
:10415000A42BB52B0F2EFFEFEF2EF0E0FF2EFFEF7D
:104160000F2FF0E01F2FF02DE822F9220A231B2346
:104170008B859C85AD85BE85292F3A2F4B2F5527E2
:10418000B82FAA2799278827822B932BA42BB52BEE
:104190008070A0708E299F29A02BB12B8B879C87C4
:1041A000AD87BE878F859889A989BA892B2F332738
:1041B00044275527BA2FA92F982F8827822B932B76
:1041C000A42BB52B0F2EFFEFEF2EF0E0FF2EFFEF0D
:1041D0000F2FF0E01F2FF02DE822F9220A231B23D6
:1041E0008F859889A989BA89292F3A2F4B2F55276E
:1041F000B82FAA2799278827822B932BA42BB52B7E
:104200008070A0708E299F29A02BB12B8F87988B4F
:10421000A98BBA8B89819A81BC0168587F4F8F85A1
:104220009889A989BA892B853C854D855E85FE01D3
:1042300037960F2EF3E0AF2EBB24F02DAC0EBD1E33
:104240006B017C018D01BF01C5010E94A818898105
:104250009A81BC0160597F4F8F819885A985BA8565
:104260002B813C814D815E81FE013F960F2EFBE04C
:10427000AF2EBB24F02DAC0EBD1E6B017C018D0159
:10428000BF01C5010E94A81889819A81BC016859A3
:104290007F4F8F859889A989BA892B853C854D8563
:1042A0005E85FE0137960F2EF3E0AF2EBB24F02D76
:1042B000AC0EBD1E6B017C018D01BF01C5010E94CA
:1042C000A81889819A81BC01605A7F4F8F81988597
:1042D000A985BA852B813C814D815E81FE013F9687
:1042E0000F2EFBE0AF2EBB24F02DAC0EBD1E6B01DC
:1042F0007C018D01BF01C5010E94A81889819A81A6
:10430000BC01685A7F4F8F859889A989BA892B8506
:104310003C854D855E85FE0137960F2EF3E0AF2E6E
:10432000BB24F02DAC0EBD1E6B017C018D01BF01C5
:10433000C5010E94A81889819A81BC01605B7F4FEA
:104340008F819885A985BA852B813C814D815E81BD
:10435000FE013F960F2EFBE0AF2EBB24F02DAC0EDE
:10436000BD1E6B017C018D01BF01C5010E94A81813
:1043700089819A81BC01685B7F4F8F859889A98963
:10438000BA892B853C854D855E85FE0137960F2EBB
:10439000F3E0AF2EBB24F02DAC0EBD1E6B017C01F3
:1043A0008D01BF01C5010E94A81889819A81BC01B5
:1043B000605C7F4F8F819885A985BA852B813C8170
:1043C0004D815E81FE013F960F2EFBE0AF2EBB2498
:1043D000F02DAC0EBD1E6B017C018D01BF01C5012E
:1043E0000E94A81889819A81BC01685C7F4F8F85E3
:1043F0009889A989BA892B853C854D855E85FE0102
:1044000037960F2EF3E0AF2EBB24F02DAC0EBD1E61
:104410006B017C018D01BF01C5010E94A818898133
:104420009A81BC01605D7F4F8F819885A985BA858F
:104430002B813C814D815E81FE013F960F2EFBE07A
:10444000AF2EBB24F02DAC0EBD1E6B017C018D0187
:10445000BF01C5010E94A81889819A81BC01685DCD
:104460007F4F8F859889A989BA892B853C854D8591
:104470005E85FE0137960F2EF3E0AF2EBB24F02DA4
:10448000AC0EBD1E6B017C018D01BF01C5010E94F8
:10449000A81889819A81BC01605E7F4F8F819885C1
:1044A000A985BA852B813C814D815E81FE013F96B5
:1044B0000F2EFBE0AF2EBB24F02DAC0EBD1E6B010A
:1044C0007C018D01BF01C5010E94A81889819A81D4
:1044D000BC01685E7F4F8F859889A989BA892B8531
:1044E0003C854D855E85FE0137960F2EF3E0AF2E9D
:1044F000BB24F02DAC0EBD1E6B017C018D01BF01F4
:10450000C5010E94A81889819A81BC01605F7F4F14
:104510008F819885A985BA852B813C814D815E81EB
:10452000FE013F960F2EFBE0AF2EBB24F02DAC0E0C
:10453000BD1E6B017C018D01BF01C5010E94A81841
:1045400089819A81BC01685F7F4F8F859889A9898D
:10455000BA892B853C854D855E85FE0137960F2EE9
:10456000F3E0AF2EBB24F02DAC0EBD1E6B017C0121
:104570008D01BF01C5010E94A8188F819885A9856A
:10458000BA852B813C814D815E8169817A81FE01F2
:104590003F960F2EFBE0AF2EBB24F02DAC0EBD1EC0
:1045A0006B017C018D01BF01C5010E94A8188B81A0
:1045B0009C81AD81BE812B2F332744275527BA2FED
:1045C000A92F982F8827822B932BA42BB52B0F2E46
:1045D000FFEFEF2EF0E0FF2EFFEF0F2FF0E01F2F89
:1045E000F02DE822F9220A231B238B819C81AD81C7
:1045F000BE81292F3A2F4B2F5527B82FAA2799274D
:104600008827822B932BA42BB52B8070A0708E292A
:104610009F29A02BB12B8B839C83AD83BE838F817D
:104620009885A985BA852B2F332744275527BA2F7C
:10463000A92F982F8827822B932BA42BB52B0F2ED5
:10464000FFEFEF2EF0E0FF2EFFEF0F2FF0E01F2F18
:10465000F02DE822F9220A231B238F819885A98552
:10466000BA85292F3A2F4B2F5527B82FAA279927DC
:104670008827822B932BA42BB52B8070A0708E29BA
:104680009F29A02BB12B8F839887A987BA878B8509
:104690009C85AD85BE852B2F332744275527BA2F00
:1046A000A92F982F8827822B932BA42BB52B0F2E65
:1046B000FFEFEF2EF0E0FF2EFFEF0F2FF0E01F2FA8
:1046C000F02DE822F9220A231B238B859C85AD85DA
:1046D000BE85292F3A2F4B2F5527B82FAA27992768
:1046E0008827822B932BA42BB52B8070A0708E294A
:1046F0009F29A02BB12B8B879C87AD87BE878F8589
:104700009889A989BA892B2F332744275527BA2F8F
:10471000A92F982F8827822B932BA42BB52B0F2EF4
:10472000FFEFEF2EF0E0FF2EFFEF0F2FF0E01F2F37
:10473000F02DE822F9220A231B238F859889A98965
:10474000BA89292F3A2F4B2F5527B82FAA279927F7
:104750008827822B932BA42BB52B8070A0708E29D9
:104760009F29A02BB12B8F87988BA98BBA8BEB89B4
:10477000FC898B859C85AD85BE8580839183A283D2
:10478000B3838B899C89FC0134968F859889A9898C
:10479000BA8980839183A283B3838B899C89FC012E
:1047A00038968B819C81AD81BE8180839183A28369
:1047B000B3838B899C89FC013C968F819885A98560
:1047C000BA8580839183A283B38366960FB6F894EB
:1047D000DEBF0FBECDBFDF91CF911F910F91FF9034
:1047E000EF90DF90CF90BF90AF9008958F929F92FF
:1047F000AF92BF92CF92DF92EF92FF920F931F93EF
:10480000CF93DF93CDB7DEB7CA54D0400FB6F8943C
:10481000DEBF0FBECDBF9AAF89AF4BAF5CAF6DAF00
:104820007EAFFE01FF960083118322833383FE0156
:10483000ED5BFF4FC082D182E282F382FE01E95B31
:10484000FF4F80829182A282B382FE01ED5BFF4F17
:104850002BAD3CAD4DAD5EAD80819181A281B38128
:10486000280F391F4A1F5B1F6D968CAD9DADAEADF5
:10487000BFAD6D9779018A01E81AF90A0A0B1B0B83
:10488000D801C7018DAB9EABAFABB8AFFE01FF96B1
:1048900020813181428153816D968CAD9DADAEAD4D
:1048A000BFAD6D97280F391F4A1F5B1FFE01E95BE3
:1048B000FF4F80819181A281B38179018A01E81A39
:1048C000F90A0A0B1B0BD801C70189AB9AABABAB3A
:1048D000BCAB8DA99927880F991F880F991F825407
:1048E0009D4F98AB8FA7EFA5F8A985919591A591BC
:1048F000B4918BA79CA7ADA7BEA7F8ABEFA72BA53C
:104900003CA54DA55EA58DA99EA9AFA9B8AD892FDF
:104910009A2FAB2FBB279927880F991F880F991FB4
:104920008254994F9AA789A7E9A5FAA585919591EF
:10493000A591B4918DA39EA3AFA3B8A7FAA7E9A7A9
:104940008DA19EA1AFA1B8A5282739274A275B27AB
:104950008DA99EA9AFA9B8ADCD01AA27BB279927DC
:10496000880F991F880F991F8254954F9CA38BA382
:10497000EBA1FCA185919591A591B4918F8F98A3FE
:10498000A9A3BAA3FCA3EBA38F8D98A1A9A1BAA157
:10499000282739274A275B278DA99EA9AFA9B8AD3B
:1049A0008B2F9927AA27BB279927880F991F880F34
:1049B000991F8254914F9E8F8D8FED8DFE8D859125
:1049C0009591A591B491898F9A8FAB8FBC8FFE8FF3
:1049D000ED8F898D9A8DAB8DBC8D82279327A4276F
:1049E000B527E9ADFAAD80839183A283B38389AD06
:1049F0009AADBC016C5F7F4F89A99927880F991FD9
:104A0000880F991F82549D4F988F8F8BEF89F88D57
:104A100085919591A591B4918B8B9C8BAD8BBE8B21
:104A2000F88FEF8B2B893C894D895E8989A99AA9DA
:104A3000ABA9BCA9892F9A2FAB2FBB279927880F29
:104A4000991F880F991F8254994F9A8B898BE989F6
:104A5000FA8985919591A591B4918D879E87AF87AD
:104A6000B88BFA8BE98B8D859E85AF85B889282711
:104A700039274A275B2789A99AA9ABA9BCA9CD01E7
:104A8000AA27BB279927880F991F880F991F82543F
:104A9000954F9C878B87EB85FC8585919591A5919A
:104AA000B4918F839887A987BA87FC87EB878F811A
:104AB0009885A985BA85282739274A275B2789A998
:104AC0009AA9ABA9BCA98B2F9927AA27BB279927FD
:104AD000880F991F880F991F8254914F9E838D8351
:104AE000ED81FE8185919591A591B49189839A83F9
:104AF000AB83BC83FE83ED8389819A81AB81BC81CA
:104B000082279327A427B527FB0180839183A28363
:104B1000B3838BAD9CADADADBEAD8DAB9EABAFAB3E
:104B2000B8AF8BAD9CADADADBEAD292F3A2F4B2F9D
:104B30005527FE01FF9680819181A281B381B82F14
:104B4000AA279927882782279327A427B5278BAFE1
:104B50009CAFADAFBEAFFE01FF9680819181A28177
:104B6000B381292F3A2F4B2F55278DA99EA9AFA985
:104B7000B8ADB82FAA2799278827FE01FF9682276C
:104B80009327A427B52780839183A283B383C65B31
:104B9000DF4F0FB6F894DEBF0FBECDBFDF91CF91D0
:104BA0001F910F91FF90EF90DF90CF90BF90AF904B
:104BB0009F908F9008958F929F92AF92BF92CF92C5
:104BC000DF92EF92FF920F931F93CF93DF93CDB7B6
:104BD000DEB7CA54D0400FB6F894DEBF0FBECDBFCB
:104BE0009AAF89AF4BAF5CAF6DAF7EAFFE01FF9662
:104BF0000083118322833383FE01ED5BFF4FC0826C
:104C0000D182E282F382FE01E95BFF4F80829182D2
:104C1000A282B382FE01ED5BFF4F2BAD3CAD4DADEB
:104C20005EAD80819181A281B381280F391F4A1F17
:104C30005B1F6D968CAD9DADAEADBFAD6D9779012F
:104C40008A01E81AF90A0A0B1B0BD801C7018DABC0
:104C50009EABAFABB8AFFE01FF96208131814281A0
:104C600053816D968CAD9DADAEADBFAD6D97280FE8
:104C7000391F4A1F5B1FFE01E95BFF4F8081918155
:104C8000A281B38179018A01E81AF90A0A0B1B0B88
:104C9000D801C70189AB9AABABABBCAB8DA9992747
:104CA000880F991F880F991F82549D4F98AB8FA72B
:104CB000EFA5F8A985919591A591B4918BA79CA793
:104CC000ADA7BEA7F8ABEFA72BA53CA54DA55EA54C
:104CD0008DA99EA9AFA9B8AD892F9A2FAB2FBB275D
:104CE0009927880F991F880F991F8254994F9AA767
:104CF00089A7E9A5FAA585919591A591B4918DA370
:104D00009EA3AFA3B8A7FAA7E9A78DA19EA1AFA1C3
:104D1000B8A5282739274A275B278DA99EA9AFA9BF
:104D2000B8ADCD01AA27BB279927880F991F880FF7
:104D3000991F8254954F9CA38BA3EBA1FCA1859155
:104D40009591A591B4918F8F98A3A9A3BAA3FCA321
:104D5000EBA38F8D98A1A9A1BAA1282739274A27AB
:104D60005B278DA99EA9AFA9B8AD8B2F9927AA273C
:104D7000BB279927880F991F880F991F8254914F3D
:104D80009E8F8D8FED8DFE8D85919591A591B4911E
:104D9000898F9A8FAB8FBC8FFE8FED8F898D9A8D07
:104DA000AB8DBC8D82279327A427B527E9ADFAAD3B
:104DB00080839183A283B38389AD9AADBC016C5F7C
:104DC0007F4F89A99927880F991F880F991F8254AF
:104DD0009D4F988F8F8BEF89F88D85919591A59137
:104DE000B4918B8B9C8BAD8BBE8BF88FEF8B2B890B
:104DF0003C894D895E8989A99AA9ABA9BCA9892F4B
:104E00009A2FAB2FBB279927880F991F880F991FBF
:104E10008254994F9A8B898BE989FA89859195916A
:104E2000A591B4918D879E87AF87B88BFA8BE98B5C
:104E30008D859E85AF85B889282739274A275B2726
:104E400089A99AA9ABA9BCA9CD01AA27BB279927F3
:104E5000880F991F880F991F8254954F9C878B87C5
:104E6000EB85FC8585919591A591B4918F83988769
:104E7000A987BA87FC87EB878F819885A985BA8532
:104E8000282739274A275B2789A99AA9ABA9BCA952
:104E90008B2F9927AA27BB279927880F991F880F3F
:104EA000991F8254914F9E838D83ED81FE81859160
:104EB0009591A591B49189839A83AB83BC83FE833A
:104EC000ED8389819A81AB81BC8182279327A427B6
:104ED000B527FB0180839183A283B383FE01ED5B41
:104EE000FF4F80819181A281B3818DAB9EABAFAB2F
:104EF000B8AFFE01ED5BFF4F80819181A281B3814C
:104F00002227382F492F5A2FFE01E95BFF4F80815E
:104F10009181A281B3818B2F9927AA27BB27FE01FC
:104F2000ED5BFF4F82279327A427B52780839183CA
:104F3000A283B383FE01E95BFF4F80819181A2814F
:104F4000B3812227382F492F5A2F8DA99EA9AFA9A7
:104F5000B8AD8B2F9927AA27BB27FE01E95BFF4F2E
:104F600082279327A427B52780839183A283B383C5
:104F7000C65BDF4F0FB6F894DEBF0FBECDBFDF912B
:104F8000CF911F910F91FF90EF90DF90CF90BF9046
:104F9000AF909F908F9008952F923F924F925F9283
:104FA0006F927F928F929F92AF92BF92CF92DF9239
:104FB000EF92FF920F931F93CF93DF93CDB7DEB79E
:104FC000C255D0400FB6F894DEBF0FBECDBFFE0174
:104FD000E55BFF4F91838083FE01E35BFF4F7183AD
:104FE0006083FE01E55BFF4F808191819AAB89ABC5
:104FF000FE01E35BFF4F0190F081E02D9E01295BF4
:105000003F4F80819181A281B381F9018083918397
:10501000A283B383FE01E35BFF4F80819181FC019A
:1050200034969E012D5B3F4F80819181A281B38197
:10503000F90180839183A283B383FE01E35BFF4F79
:1050400080819181FC0138969E01215C3F4F8081D7
:105050009181A281B381F90180839183A283B3837B
:10506000FE01E35BFF4F80819181FC013C968081D2
:105070009181A281B3818BAF9CAFADAFBEAFFE017A
:10508000E95BFF4F80819181A281B3812B2F332770
:1050900044275527BA2FA92F982F8827822B932B87
:1050A000A42BB52B0F2EFFEFEF2EF0E0FF2EFFEF1E
:1050B0000F2FF0E01F2FF02DE822F9220A231B23E7
:1050C000FE01E95BFF4F80819181A281B381292F8D
:1050D0003A2F4B2F5527B82FAA2799278827822B9D
:1050E000932BA42BB52B8070A070FE01E95BFF4FC2
:1050F0008E299F29A02BB12B80839183A283B38318
:10510000FE01ED5BFF4F80819181A281B3812B2F46
:10511000332744275527BA2FA92F982F8827822B6A
:10512000932BA42BB52B0F2EFFEFEF2EF0E0FF2ECD
:10513000FFEF0F2FF0E01F2FF02DE822F9220A23B6
:105140001B23FE01ED5BFF4F80819181A281B38122
:10515000292F3A2F4B2F5527B82FAA279927882771
:10516000822B932BA42BB52B8070A070FE01ED5BDE
:10517000FF4F8E299F29A02BB12B80839183A2837F
:10518000B383FE01FF9680819181A281B3812B2F91
:10519000332744275527BA2FA92F982F8827822BEA
:1051A000932BA42BB52B0F2EFFEFEF2EF0E0FF2E4D
:1051B000FFEF0F2FF0E01F2FF02DE822F9220A2336
:1051C0001B23FE01FF9680819181A281B381292F4B
:1051D0003A2F4B2F5527B82FAA2799278827822B9C
:1051E000932BA42BB52B8070A070FE01FF968E2907
:1051F0009F29A02BB12B80839183A283B3838BAD96
:105200009CADADADBEAD2B2F332744275527BA2F0C
:10521000A92F982F8827822B932BA42BB52B0F2EE9
:10522000FFEFEF2EF0E0FF2EFFEF0F2FF0E01F2F2C
:10523000F02DE822F9220A231B238BAD9CADADADE6
:10524000BEAD292F3A2F4B2F5527B82FAA279927C4
:105250008827822B932BA42BB52B8070A0708E29CE
:105260009F29A02BB12B8BAF9CAFADAFBEAFEBACEA
:10527000FCAC0DAD1EADFE01FF9680819181A28137
:10528000B38163968CAF9DAFAEAFBFAF6397FE01A6
:10529000ED5BFF4F2081318142815381FE01E95B4B
:1052A000FF4F4080518062807380E9A9FAA989EBA1
:1052B00099E7A7E3BEE9BF93AF939F938F9347010D
:1052C00058016396CCACDDACEEACFFAC63978901C2
:1052D0009A01B301A201CF010E94F6230F900F9013
:1052E0000F900F9089A99AA922243324689423F857
:1052F000280E391ECBACDCACEDACFEACFE01FF964B
:105300000081118122813381FE01ED5BFF4F4080DE
:10531000518062807380FE01E95BFF4F40815181C3
:105320006281738183E793EFAEE6BCE3BF93AF93F3
:105330009F938F9346015701680179019301820180
:10534000C1010E94DB250F900F900F900F9089A94B
:105350009AA922243324689424F8280E391ECBAC51
:10536000DCACEDACFEACFE01FF9600811181228128
:105370003381FE01ED5BFF4F40805180628073807E
:10538000FE01E95BFF4F408151816281738186EEAE
:1053900096EEADEDB8E7BF93AF939F938F93460121
:1053A00057016801790193018201C1010E94F6232E
:1053B0000F900F900F900F9089A99AA90F2EF8E1E6
:1053C0002F2E3324F02D280E391ECBACDCACEDACE7
:1053D000FEACFE01FF960081118122813381FE0126
:1053E000ED5BFF4F4080518062807380FE01E95B7E
:1053F000FF4F40815181628173818CEC9DECABEB5E
:10540000B1EFBF93AF939F938F934601570168010C
:10541000790193018201C1010E94DB250F900F9059
:105420000F900F9089A99AA922243324689425F813
:10543000280E391ECBACDCACEDACFEACFE01FF9609
:105440000081118122813381FE01ED5BFF4F40809D
:10545000518062807380FE01E95BFF4F4081518182
:105460006281738189E99BE9A7E7B3EEBF93AF93AC
:105470009F938F934601570168017901930182013F
:10548000C1010E94F6230F900F900F900F9089A9F1
:105490009AA90F2EF8E22F2E3324F02D280E391E54
:1054A000CBACDCACEDACFEACFE01FF960081118113
:1054B00022813381FE01ED5BFF4F4080518062808D
:1054C0007380FE01E95BFF4F4081518162817381EE
:1054D00083E397E3AFEEB6ECBF93AF939F938F93C5
:1054E000460157016801790193018201C1010E94BF
:1054F000DB250F900F900F900F9089A99AA90F2E7E
:10550000F0E32F2E3324F02D280E391ECBACDCAC6B
:10551000EDACFEACFE01FF9600811181228133814A
:10552000FE01ED5BFF4F4080518062807380FE0181
:10553000E95BFF4F408151816281738187E69EE67E
:10554000AEEDBDE8BF93AF939F938F934601570194
:105550006801790193018201C1010E94F6230F9035
:105560000F900F900F9089A99AA90F2EF8E32F2E74
:105570003324F02D280E391ECBACDCACEDACFEACE8
:10558000FE01FF960081118122813381FE01ED5BD6
:10559000FF4F4080518062807380FE01E95BFF4FC6
:1055A00040815181628173818FEC9CEDACEBBBE15A
:1055B000BF93AF939F938F93460157016801790181
:1055C00093018201C1010E94DB250F900F900F9083
:1055D0000F9089A99AA922243324689426F8280ECA
:1055E000391ECBACDCACEDACFEACFE01FF9600810D
:1055F000118122813381FE01ED5BFF4F408051809C
:1056000062807380FE01E95BFF4F408151816281BE
:1056100073818EE999EBA9E7B7E3BF93AF939F93AB
:105620008F93460157016801790193018201C101FD
:105630000E94F6230F900F900F900F9089A99AA9BE
:105640000F2EF8E42F2E3324F02D280E391ECBAC6C
:10565000DCACEDACFEACFE01FF9600811181228135
:105660003381FE01ED5BFF4F40805180628073808B
:10567000FE01E95BFF4F40815181628173818CE3C0
:1056800093E7A3EFBEE6BF93AF939F938F9346013B
:1056900057016801790193018201C1010E94DB2554
:1056A0000F900F900F900F9089A99AA90F2EF0E5F7
:1056B0002F2E3324F02D280E391ECBACDCACEDACF4
:1056C000FEACFE01FF960081118122813381FE0133
:1056D000ED5BFF4F4080518062807380FE01E95B8B
:1056E000FF4F408151816281738188E796EEA6EE7B
:1056F000BDEDBF93AF939F938F9346015701680110
:10570000790193018201C1010E94F6230F900F904D
:105710000F900F9089A99AA90F2EF8E52F2E332408
:10572000F02D280E391ECBACDCACEDACFEACFE018E
:10573000FF960081118122813381FE01ED5BFF4FD5
:105740004080518062807380FE01E95BFF4F4081A1
:1057500051816281738181EF9CECADECBBEBBF9317
:10576000AF939F938F93460157016801790193018D
:105770008201C1010E94DB250F900F900F900F90C6
:1057800089A99AA90F2EF0E62F2E3324F02D280E8A
:10579000391ECBACDCACEDACFEACFE01FF9600815B
:1057A000118122813381FE01ED5BFF4F40805180EA
:1057B00062807380FE01E95BFF4F4081518162810D
:1057C000738183EE99E9ABE9B7E7BF93AF939F93FA
:1057D0008F93460157016801790193018201C1014C
:1057E0000E94F6230F900F900F900F9089A99AA90D
:1057F0000F2EF8E62F2E3324F02D280E391ECBACB9
:10580000DCACEDACFEACFE01FF9600811181228183
:105810003381FE01ED5BFF4F4080518062807380D9
:10582000FE01E95BFF4F408151816281738186EC0B
:1058300093E3A7E3BFEEBF93AF939F938F9346018C
:1058400057016801790193018201C1010E94DB25A2
:105850000F900F900F900F9089A99AA90F2EF0E743
:105860002F2E3324F02D280E391ECBACDCACEDAC42
:10587000FEACFE01FF960081118122813381FE0181
:10588000ED5BFF4F4080518062807380FE01E95BD9
:10589000FF4F40815181628173818DE897E6AEE6CA
:1058A000BEEDBF93AF939F938F934601570168015D
:1058B000790193018201C1010E94F6230F900F909C
:1058C0000F900F90FE01E95BFF4FDE01DF96208114
:1058D0003181428153818D919D910D90BC91A02D7C
:1058E000820F931FA41FB51F8B519F4CAC4DBC4B17
:1058F0008FAB98AFA9AFBAAFFE01ED5BFF4F208130
:105900003181428153818BAD9CADADADBEAD79018E
:105910008A01E81AF90A0A0B1B0BD801C701855E38
:105920009043A342B3448BAB9CABADABBEAB89A958
:105930009AA9BC0168587F4F8FA99927880F991F92
:10594000880F991F82549D4F98AB8FA7EFA5F8A998
:1059500085919591A591B4918BA79CA7ADA7BEA762
:10596000F8ABEFA72BA53CA54DA55EA58FA998ADDB
:10597000A9ADBAAD892F9A2FAB2FBB279927880FD6
:10598000991F880F991F8254994F9AA789A7E9A553
:10599000FAA585919591A591B4918DA39EA3AFA3EE
:1059A000B8A7FAA7E9A78DA19EA1AFA1B8A52827FE
:1059B00039274A275B278FA998ADA9ADBAADCD018C
:1059C000AA27BB279927880F991F880F991F8254F0
:1059D000954F9CA38BA3EBA1FCA185919591A591DB
:1059E000B4918F8F98A3A9A3BAA3FCA3EBA38F8D27
:1059F00098A1A9A1BAA1282739274A275B278FA9EF
:105A000098ADA9ADBAAD8B2F9927AA27BB279927A7
:105A1000880F991F880F991F8254914F9E8F8D8FE9
:105A2000ED8DFE8D85919591A591B491898F9A8F79
:105A3000AB8FBC8FFE8FED8F898D9A8DAB8DBC8D1A
:105A400082279327A427B527FB0180839183A28314
:105A5000B38389A99AA9BC0164587F4F8BA9992760
:105A6000880F991F880F991F82549D4F988F8F8B95
:105A7000EF89F88D85919591A591B4918B8B9C8B35
:105A8000AD8BBE8BF88FEF8B2B893C894D895E895E
:105A90008BA99CA9ADA9BEA9892F9A2FAB2FBB2793
:105AA0009927880F991F880F991F8254994F9A8BB5
:105AB000898BE989FA8985919591A591B4918D8712
:105AC0009E87AF87B88BFA8BE98B8D859E85AF85D6
:105AD000B889282739274A275B278BA99CA9ADA914
